:100000000C943A000C9457000C9457000C94570031
:100010000C9457000C9495000C9457000C945700C6
:100020000C9457000C9457000C9457000C949401B6
:100030000C9457000C9457000C9471010C945700C9
:100040000C9457000C9457000C9469030C945700BF
:100050000C9457000C9457000C9457000C945700C4
:100060000C9457000C9457006364696E6F7073753D
:1000700078585B0011241FBECFEFD8E0DEBFCDBFA4
:1000800011E0A0E0B1E0E6EDFAE102C005900D92CA
:10009000A837B107D9F721E0A8E7B1E001C01D9268
:1000A000AB39B207E1F70E9420040C94690D0C945F
:1000B0000000E0EBF0E080818360808380818068D5
:1000C000808380E88093B300E1EBF0E0808187607B
:1000D0008083089585B5886185BDEEE6F0E0808176
:1000E0008260808386E687BD85B5826085BD3D9A46
:1000F00083E085BD089584B1806384B9E1E8F0E0D0
:1001000080818860808380818F7E8083AFE6B0E0CD
:100110008C9182608C9388EA91E690938900809319
:1001200088008081887F808308951F920F920FB688
:100130000F9211242F933F934F935F936F937F936D
:100140008F939F93AF93BF93EF93FF9389B190E009
:1001500090939101809390018091900190919101F1
:1001600084708093870180919001909191018870B3
:100170008093950180918801811151C080919501F2
:10018000882349F081E080938E0180910001909155
:10019000010101960CC080918701882361F082E003
:1001A00080938E01809100019091010101979093BD
:1001B00001018093000190918E0180918801981730
:1001C00039F081E08093820180918E0180938801D3
:1001D00080910001909101018B3591050CF477C05D
:1001E0008AE590E090930101809300016091000105
:1001F0007091010184E690E00E94200DFF91EF9143
:10020000BF91AF919F918F917F916F915F914F912E
:100210003F912F910F900FBE0F901F9018958091D6
:1002200088018130B1F480918701882311F083E047
:10023000AACF809195018111BECF8091000190914C
:1002400001010197909301018093000110928E01AA
:10025000B2CF809188018230E1F4809187018111D1
:1002600006C080910001909101010196EBCF809131
:100270009501882309F49FCF80910001909101019D
:100280000197909301018093000183E080938E0198
:1002900092CF8091950181110BC0809100019091C6
:1002A00001010196909301018093000182E0EECF5D
:1002B0008091870181117FCF809100019091010190
:1002C0000197909301018093000181E0DFCF80913D
:1002D000000190910101C2970CF088CF82E390E079
:1002E00081CF1F920F920FB60F9211248F939F937D
:1002F00080917D0190917E01892BA1F088B190E2DF
:10030000892788B980917D0190917E010197909312
:100310007E0180937D019F918F910F900FBE0F9072
:100320001F9018954598F7CF1F920F920FB60F9216
:1003300011245F936F937F938F939F93AF93BF939A
:10034000809192018130B9F480917B0190917C0180
:100350006AE070E00E944207892B21F485B190E1A8
:10036000892785B980917B0190917C0101969093BA
:100370007C0180937B01BF91AF919F918F917F9181
:100380006F915F910F900FBE0F901F9018953B9A41
:100390008FE599E00197F1F700C000003B988BE0F2
:1003A00091E00197F1F700C0000033990AC0339B38
:1003B000FECF87EC90E00197F1F700C0000081E0EC
:1003C000089580E008953B9A43988AE08A95F1F772
:1003D00000C03B9843988FEE90E00197F1F700C082
:1003E000000008953B9A43988FEE90E00197F1F753
:1003F00000C000003B9843989AE09A95F1F700C03E
:100400000895CF93DF93D82FC8E0D0FF08C00E9493
:10041000E301D695C150C9F7DF91CF9108950E94AD
:10042000F201F7CF0E94C701882331F08CEC0E94C3
:10043000010284E40C94010208953B9A43988AE0F7
:100440008A95F1F700C03B98439895E39A95F1F7A8
:10045000000096B1892F887093FD07C0E7ECF0E0AB
:100460003197F1F700C00000089587EC90E0019704
:10047000F1F700C0000081E008951F93CF93DF9350
:10048000D8E011E0C0E00E941D028111C12B110FC4
:10049000D150C9F78C2FDF91CF911F910895EF9222
:1004A000FF920F931F93CF93DF93CDB7DEB72997BA
:1004B0000FB6F894DEBF0FBECDBF3B9843980E94A5
:1004C000C70181110EC080E029960FB6F894DEBFF7
:1004D0000FBECDBFDF91CF911F910F91FF90EF9095
:1004E00008958CEC0E9401028EEB0E9401028E01A5
:1004F0000F5F1F4F7E012AE0E20EF11C0E943D02B9
:10050000F80181938F01EE15FF05C1F70E94C70125
:100510008823C9F28CEC0E9401028EE40E94010241
:100520008B810E9401028C810E9401028FE70E9450
:1005300001028FE891E00197F1F700C000000E94EE
:10054000C701882309F4BFCF8CEC0E94010288E424
:100550000E9401029FEFE9EFF0E09150E040F0408F
:10056000E1F700C0000081E0AFCFCF93DF93EC0153
:100570000E941D02882301F10E94C7018823D1F047
:100580008CEC0E9401028EEB0E9401020E943D024F
:1005900088830E943D0289830E943D020E943D02A1
:1005A0000E943D020E943D020E943D020E943D02C7
:1005B0000E943D0281E001C080E0DF91CF9108956B
:1005C0009BB19F709BB99BB1807F892B8BB9299A76
:1005D000299A29980895CF93C82F28980E94E0025D
:1005E0008C2F8295807F0E94E0028FE39FE101972C
:1005F000F1F700C00000CF910895811104C080E898
:10060000860F0C94EB0280ECFBCF84B1836084B93D
:100610008AB1806F8AB98FE59AEE0197F1F700C031
:10062000000080E30E94E0028FE19EE40197F1F771
:1006300000C0000080E30E94E0028FED91E001978E
:10064000F1F700C0000080E30E94E00280E20E9417
:10065000E0028FE39FE10197F1F700C0000088E21C
:100660000E94EB028FE00C94EB02CF93C82F289AE4
:100670000E94E0028C2F8295807F0E94E0028FE32F
:100680009FE10197F1F700C00000CF910895CF934B
:10069000DF93EC018991811103C0DF91CF9108951F
:1006A0000E943503F7CFE1ECF0E080818068808321
:1006B0003C9A87E690E09093C5008093C4008081C7
:1006C0008061808380818860808386E08093C2001F
:1006D00008951F920F920FB60F9211242F933F93FC
:1006E0008F939F93EF93FF938091C600803481F4A2
:1006F00081E08093860110928501FF91EF919F9197
:100700008F913F912F910F900FBE0F901F901895D2
:10071000833289F48091830190918401181619061F
:100720001CF481E08093850110928601109284016F
:1007300010928301E2CF909186018B3211F08D32BD
:1007400061F5913069F42091830130918401232B6C
:1007500039F0109286011092840110928301CBCF60
:1007600090918601992349F220918301309184016F
:10077000232B19F68D3209F6E0918301F091840163
:10078000EA56FE4F80838091830190918401019607
:100790009093840180938301B0CF913069F380916D
:1007A00083019091840105970CF4A7CF10928601E4
:1007B00010928501BBCF0F931F93CF93DF9300D08F
:1007C00000D000D0CDB7DEB7282F082E000C330B99
:1007D0008E010F5F1F4F18163CF53F938F938CE6E9
:1007E00091E09F938F931F9286E08F931F930F93B7
:1007F0000E9456070FB6F894DEBF0FBECDBFF801BA
:100800008191811116C08091C00085FFFCCF1092AC
:10081000C60026960FB6F894DEBF0FBECDBFDF919F
:10082000CF911F910F9108953F938F9382E791E0AD
:10083000D8CF9091C00095FFFCCF8093C600E0CF49
:100840002F923F924F925F926F927F928F929F92E0
:10085000AF92BF92CF92DF92EF92FF920F931F93CE
:10086000CF93DF93CDB7DEB767970FB6F894DEBFAF
:100870000FBECDBF0E944F0278940E9459000E9483
:100880007B000E946A000E945303239A80916800B3
:1008900084608093680080916D00886080936D0013
:1008A00080916D00846080936D003D9A88B1866070
:1008B00088B9449A84E690E00E94180D9093010153
:1008C0008093000180910001909101018B35910589
:1008D0000CF47FC08AE590E09093010180930001C1
:1008E000609100017091010184E690E00E94200D6A
:1008F0008AB1837F8AB98BB18C608BB989B190E062
:100900009093910180939001809190019091910139
:1009100084708093870180919001909191018870FB
:10092000809395018091870181115DC0809195012F
:10093000811159C0109288018091880180938E01A5
:100940000E9412020E94050381E00E94EB0284E1F2
:1009500091E00E94470360E081E00E94FD0282E294
:1009600091E00E9447032FEF33ED80E321503040A8
:100970008040E1F700C0000081E00E94EB0210928D
:100980008F01109292017AE0A72EB12C8E010F5F99
:100990001F4FEFE56E2EE1E07E2EF2E5CF2EF1E067
:1009A000DF2E4E0191E1890E911C319934C01092D5
:1009B0007A012FE231E030930301209302019091FC
:1009C0007A01809179019817B9F181E080937801DB
:1009D00033C08091000190910101C2970CF080CF4B
:1009E00082E390E079CF80918701811108C08091E6
:1009F0009501882321F081E0809388019DCF80912B
:100A00008701882331F080919501811102C082E035
:100A1000F3CF83E0F1CF329913C081E080937A0164
:100A200025E331E0309303012093020120917A0104
:100A3000909179012913CACF80917A01809379012D
:100A4000CE0146960E94B502882309F4C3C081E016
:100A50000E94EB028F8990E0982F88272E89820FC1
:100A6000911D4AE0489F9001499F300D1124C90112
:100A700054E0969587955A95E1F7B5010E942E07A7
:100A8000FC01C90160EA70E00E942E0784E6869F9F
:100A90009001879F300D11244E9FC0014F9F900DF4
:100AA0001124280F391F49E0429FC001439F900D38
:100AB000112465E070E00E942E079B012058334FFF
:100AC000C901B5010E942E0747E1469FC001479F1B
:100AD000900D1124805F934268E572E00E942E071A
:100AE0007093800160937F0180917F0190918001DC
:100AF0000C969093800180937F01C90164E670E0B9
:100B00000E942E07362F272FB5010E942E07562E42
:100B1000272E462E372EE32EF22E81E00E94EB0286
:100B200060E081E00E94FD022F925F92FF92EF92BF
:100B30008BE391E09F938F931F9260E1562E5F921B
:100B40001F930F930E945607C8010E9447038E2DE2
:100B50000E94DB03209192010FB6F894DEBF0FBE16
:100B6000CDBF90910301809102012111FEC020911F
:100B70000001309101019F938F933F932F9386E45F
:100B800091E09F938F931F925F921F930F930E9408
:100B900056070FB6F894DEBF0FBECDBF60E080E011
:100BA0000E94FD02C8010E9447030E941202809128
:100BB0007A01811106C080917F019091800180931C
:100BC000B3003FEF81EE94E0315080409040E1F778
:100BD00000C0000080918501882309F44DC0109267
:100BE000850180919301909194019F938F9383E469
:100BF00091E09F938F9386E991E09F938F930E945A
:100C0000860780919301909194010F900F900F901F
:100C10000F900F900F90873F9F4F0CF404C180916D
:100C20009301909194018E3691050CF0FCC0809157
:100C30007A01882331F080919301909194018093FF
:100C4000B3006BE081E00E94FD0286E991E09F9392
:100C50008F938FE491E09F938F931F9285E08F9302
:100C60009F928F920E945607C4010E9447030FB6BD
:100C7000F894DEBF0FBECDBF8091000190910101BD
:100C80008E159F0508F48BC01092920188B190E1F7
:100C9000892788B990918F0180919201981719F056
:100CA00081E0809381018091920180938F018091F6
:100CB0008101882369F01092810180919201811154
:100CC0007EC02D9A2C9880918100887F809381002E
:100CD00080918201882309F468CE1092820181E01C
:100CE0000E94EB0260E081E00E94FD023F924F9281
:100CF000FF92EF922BE331E03F932F931F928CE012
:100D00008F931F930F930E945607C8010E944703B9
:100D1000209192010FB6F894DEBF0FBECDBF909127
:100D2000030180910201211164C0209100013091E2
:100D300001019F938F933F932F9386E491E09F93BC
:100D40008F931F9280E18F931F930F930E945607FA
:100D50000FB6F894DEBF0FBECDBF60E080E00E940A
:100D6000FD02C8010E94470320CE2091920121304C
:100D700059F420910001309101019F938F933F938B
:100D80002F93DF92CF92FFCE20910001309101018D
:100D90009F938F933F932F937F926F92F4CE809186
:100DA000000190910101970123503109281739075B
:100DB00020F481E0809392016DCF82E0FBCF80919F
:100DC00092012D982C9A813041F410927C0110925E
:100DD0007B0180918100836079CF80918100887F41
:100DE0008093810080E293E090937E0180937D0167
:100DF0006FCF20919201213059F420910001309160
:100E000001019F938F933F932F93DF92CF9299CFBE
:100E100020910001309101019F938F933F932F9375
:100E20007F926F928ECF90E080E067960FB6F89435
:100E3000DEBF0FBECDBFDF91CF911F910F91FF900D
:100E4000EF90DF90CF90BF90AF909F908F907F906A
:100E50006F905F904F903F902F900895AA1BBB1BFF
:100E600051E107C0AA1FBB1FA617B70710F0A61BAA
:100E7000B70B881F991F5A95A9F780959095BC01CB
:100E8000CD01089597FB072E16F4009407D077FD47
:100E900009D00E942E0707FC05D03EF4909581955D
:100EA0009F4F0895709561957F4F0895AEE0B0E033
:100EB000ECE5F7E00C94400D0D891E898F89988D23
:100EC00026E02C831A83098397FF02C080E090E814
:100ED00001979E838D83AE01455E5F4F698D7A8D4C
:100EE000CE0101960E949F074D815E8157FD0AC089
:100EF0002F813885421753070CF49A01020F131FF4
:100F0000F80110822E96E4E00C945C0DAEE0B0E0A7
:100F1000ECE8F7E00C94420D85E08C838B899C898A
:100F20009A838983AE01495E5F4F6D897E89CE01C8
:100F300001960E94040B2E96E2E00C945E0DABE04D
:100F4000B0E0E5EAF7E00C94320D7C013B018A0148
:100F5000FC0117821682838181FFC8C1CE010196F0
:100F60005C01F7019381F30193FD859193FF8191DA
:100F70003F01882309F453C1853239F493FD8591EB
:100F800093FF81913F01853229F4B70190E00E94DF
:100F90006F0CE7CF912C212C312CFFE1F31538F0A9
:100FA0008B3211F190F4803209F1833229F137FC50
:100FB0003CC020ED280F2A3050F536FE20C08AE0D4
:100FC000989E200D1124922E06C08D3291F0803310
:100FD00071F7689430F8F30193FD859193FF819147
:100FE0003F018111DACF21C0689431F8689432F85A
:100FF000F2CF689433F8EFCF689434F8ECCFEAE09E
:101000002E9E200D1124222E689435F8E4CF8E32C6
:1010100029F436FC04C1689436F8DDCF8C3619F417
:10102000689437F8D8CF8836B1F2982F9F7D9554C1
:101030009330E0F08336A1F18337C1F1833509F0B5
:1010400063C02801F2E04F0E511CF801C080D1802E
:10105000692D70E036FC02C06FEF7FEFC6010E9481
:101060001D0C4C01689437F882010AC00C5F1F4FB9
:10107000FFE3F98388248394912C6501E89437F881
:1010800033FE2DC0522C8114910471F5552009F4C2
:1010900068CFB70180E290E00E946F0C5A94F6CFBF
:1010A000F801808189830E5F1F4FE4CF2801F2E0B1
:1010B0004F0E511CF801C080D180692D70E036FCC4
:1010C00002C06FEF7FEFC6010E94280C4C01820125
:1010D000D5CFB70180E290E00E946F0C2A942814CB
:1010E000190409F0B0F7CECFF60137FC859137FE31
:1010F00081916F01B70190E00E946F0C51105A94DA
:10110000F1E08F1A9108BFCF843619F0893609F0C3
:1011100077C0F80137FE6BC0608171818281938155
:101120000C5F1F4FF32DFF763F2E97FF09C0909560
:101130008095709561957F4F8F4F9F4F689437F8DA
:101140002AE030E0A5010E94B70CC82ECA188C2CEA
:10115000432C36FE0CC0E89440F8C91440F434FE29
:1011600005C032FC03C0F32DFE7E4F2E892C44FEB9
:1011700095C0FE01EC0DF11D8081803309F087C020
:10118000242D297E422E842D8870582E43FC95C034
:1011900040FE8FC09C2C821418F42C0C922C9818B2
:1011A00044FE91C0B70180E390E00E946F0C42FEC4
:1011B00009C088E790E041FE02C088E590E0B701F1
:1011C0000E946F0CC91408F48AC0CA94D12C9FEFF6
:1011D000C91AD90ACA0CDB1CF60182916F01B7014A
:1011E00090E00E946F0CAC14BD04B1F74FCF60814A
:1011F0007181072E000C880B990B0E5F1F4F92CF49
:10120000D32CE894D4F82AE030E0853739F1232D47
:10121000297FD22E8F3601F148F48835A9F0F701E5
:10122000868197812B96E2E10C944E0D803749F030
:101230008837A9F7D4FE02C06894D2F820E130E0E4
:101240000DC06894D4F8F6CF34FE03C0822F8660B8
:10125000D82E20E132E002C028E030E0F801D7FECD
:101260000FC060817181828193810C5F1F4FA50146
:101270000E94B70CC82ECA183D2CE89437F867CFE7
:101280006081718190E080E00E5F1F4FF0CF42FCE3
:1012900002C0839478CF8394839475CF842D86780D
:1012A00009F471CFF6CFB70180E290E00E946F0C95
:1012B00083948214C0F3512C73CF522C581882148B
:1012C00008F46ECFF8CF842D867809F47BCF8BE2BB
:1012D00041FE80E247FC8DE2B70190E071CFB7019B
:1012E00080E390E00E946F0C9A946CCF8FEF9FEF99
:1012F00099CF20FD09C0FC0123FD05C022FF02C0DB
:101300007383628351834083089544FD17C046FD73
:101310001DC0DB01FC01AA0FBB1FEE1FFF1F1094B5
:10132000D1F76A0F7B1F8E1F9F1F660F771F881FC5
:10133000991F620F711D811D911D089533E0660F85
:10134000771F881F991F3150D1F7F3CF34E0F7CFC3
:101350000F931F93CF93DF938C01C8010E94330C2E
:10136000EC0197FD08C00E94090C892BB1F7B80168
:10137000CE010E949F0CCE01DF91CF911F910F9162
:1013800008958F929F92AF92BF92EF92FF920F9328
:101390001F93CF93DF938C01D62F7A01B22E0E9438
:1013A000330C9C0133272B32310529F02D323105C6
:1013B000A9F46894B7F8D15061F480E0DF91CF913F
:1013C0001F910F91FF90EF90BF90AF909F908F90E3
:1013D0000895C8010E94330C97FDEFCFCB2DCD7F30
:1013E0002B2D2073F9F48033E9F4AA24AA94AD0ECE
:1013F00089F0C8010E94330C97FD0CC0282F2F7D67
:10140000283561F4C264D25029F0C8010E94330C1F
:1014100097FF08C0812C912C54011BC0B6FE2BC035
:10142000C260DA2D812C912C540120ED280F283038
:1014300028F1C4FD09C02A3008F1C6FF05C02F7D80
:101440003FEE320F3630C8F0B8010E949F0CC1FF4A
:10145000B4CFC7FF08C0B094A09490948094811C2E
:10146000911CA11CB11C2C2FB501A401C7010E9425
:10147000790981E0A3CFC261D4CF27504C2FC50199
:10148000B4010E9485094B015C01C260D15009F38F
:10149000C8010E94330C97FFC8CFD9CFA0E2B0E0BB
:1014A000E4E5FAE00C94370D5C01962E7A01CE014A
:1014B00001966C0180E2F60111928A95E9F7F50137
:1014C000B381890130E020E0712C812CA0E041E063
:1014D00050E0F801B3FD8591B3FF8191982F8F0102
:1014E000811107C010E000E0C801A096EDE00C9467
:1014F000530D8E3519F42115310541F1A21713064C
:101500004CF48D3549F18D3229F4811006C08824C0
:1015100083941DC0882009F464C0E92FE695E69500
:10152000E695EC0DFD2DF11D892F8770BA0101C0E4
:10153000660F8A95EAF78081682B6083791651F0EF
:10154000971510F49F5FE9CF9150E7CFA1E02F5F8F
:101550003F4FBFCF812CFBCF882019F08E81806256
:101560008E83AA2359F0F6019E012F5D3F4F8081A3
:10157000809580833196E217F307C9F78824839416
:10158000C5010E94330C97FD16C0E82FE695E6953D
:10159000E695EC0DFD2DF11D208130E0AC0147708A
:1015A000552702C0359527954A95E2F720FD06C0DC
:1015B000B5010E949F0C882069F094CFE114F104DA
:1015C00029F0F7018083C70101967C019A94812C50
:1015D0009110D6CFE114F10409F486CFF7011082FF
:1015E00083CFE82FE695E695E695EC0DFD2DF11DF0
:1015F000982F9770BA0101C0660F9A95EAF790810B
:10160000692B6083782EA3CFB0E0A0E0EAE0FBE096
:101610000C94350D6C01EB015A01FC011782168206
:10162000512CF601E380FE01E3FC8591E3FE8191FC
:10163000182FEF018823E9F090E00E94090C892B14
:1016400021F0C6010E94A809ECCF153241F4FE0139
:10165000E3FC1591E3FE1191EF01153269F4C60127
:101660000E94330C97FD8EC01817D9F2B6010E9464
:101670009F0C852D90E08AC000E01A3231F4E3FC23
:101680001591E3FE1191EF0101E0F12C20ED210F06
:101690002A3048F101FF37C0FF2059F31836B1F165
:1016A0001C3609F43DC0112321F3612F70E088E658
:1016B00090E00E94120C892BE1F2912C812C00FD0C
:1016C00006C0F50180809180C50102965C011E363E
:1016D00079F5F6014681578170E060E0202FC40162
:1016E0000E9479099ECF02606F2D70E090E080E04B
:1016F00040E20E948509F62EFE01E3FC1591E3FE0F
:101700001191EF01C3CFFF24FA94C8CFFE01E3FC8F
:101710001591E3FE1191EF01183609F0C4CF08606E
:101720000460FE01E3FC1591E3FE1191EF01BBCFD4
:101730001336C1F401FD02C0FF24F394C6010E94D8
:10174000330C97FD1FC08114910429F0F4018083AC
:10175000C40101964C01FA94F110F0CF00FD61CF65
:1017600053945FCF1B35B9F49E01A4016F2DC601C0
:101770000E944E0AEC01892B89F7F6018381807360
:1017800009F477CF8FEF9FEF511073CFCDB7DEB74E
:10179000EFE00C94510DC6010E94A80997FDF2CF0D
:1017A0001F36A9F130F4143641F0193639F00064CF
:1017B00005C01337B9F01537D1F70062202FA40107
:1017C0006F2DC6010E94C1098111C8CFD6CF8114E7
:1017D000910429F0F4016082C40101964C01FA944D
:1017E000FF2071F0C6010E94330C3C0197FD08C038
:1017F0000E94090C892B59F3B601C3010E949F0C6A
:101800008114910409F4AACFF4011082A7CF0061DA
:10181000D5CF91110C94150D803219F08950855057
:10182000C8F70895FC010590061621F00020D9F7AD
:10183000C00108953197CF010895FC0105906150D2
:1018400070400110D8F7809590958E0F9F1F0895D6
:10185000FC016150704001900110D8F7809590957F
:101860008E0F9F1F0895CF93DF93EC012B8120FFF4
:101870001AC026FF0CC02F7B2B838E819F8101967F
:101880009F838E838A8190E0DF91CF91089522FF1C
:1018900018C0E881F9818081082E000C990B00970F
:1018A00029F420622B838FEF9FEFEECF3196F983DF
:1018B000E8832E813F812F5F3F4F3F832E839927FF
:1018C000E3CFEA85FB85099597FFF3CF2B8101963E
:1018D00021F080E2822B8B83E6CF80E1FBCF0F9358
:1018E0001F93CF93DF93182F092FEB018B8181FD7D
:1018F00009C01FEF0FEF812F902FDF91CF911F9124
:101900000F91089582FF14C02E813F818C819D81AB
:10191000281739073CF4E881F981CF0101969983B2
:10192000888310838E819F8101969F838E83E3CF6E
:10193000E885F985812F0995892BA1F3DACFFB0181
:10194000238120FF11C026FD0FC08F3F980771F043
:1019500082832F7D206423832681378121503109A2
:1019600037832683992708958FEF9FEF0895FA0113
:10197000AA27283051F1203181F1E8946F936E7FCE
:101980006E5F7F4F8F4F9F4FAF4FB1E03ED0B4E0BF
:101990003CD0670F781F891F9A1FA11D680F791F00
:1019A0008A1F911DA11D6A0F711D811D911DA11D11
:1019B00020D009F468943F912AE0269F1124301921
:1019C000305D3193DEF6CF010895462F4770405DBC
:1019D0004193B3E00FD0C9F7F6CF462F4F70405D6B
:1019E0004A3318F0495D31FD4052419302D0A9F7C6
:1019F000EACFB4E0A6959795879577956795BA95C0
:101A0000C9F700976105710508959B01AC010A2E85
:101A100006945795479537952795BA95C9F7620F5C
:101A2000731F841F951FA01D089599278827089567
:101A3000F999FECF92BD81BDF89A992780B5089596
:101A4000262FF999FECF92BD81BDF89A019700B477
:101A5000021639F01FBA20BD0FB6F894FA9AF99A17
:101A60000FBE08952F923F924F925F926F927F9296
:101A70008F929F92AF92BF92CF92DF92EF92FF929E
:101A80000F931F93CF93DF93CDB7DEB7CA1BDB0B4A
:101A90000FB6F894DEBF0FBECDBF09942A883988EF
:101AA00048885F846E847D848C849B84AA84B984F6
:101AB000C884DF80EE80FD800C811B81AA81B98102
:101AC000CE0FD11D0FB6F894DEBF0FBECDBFED0116
:061AD0000895F894FFCF19
:101AD6004C003101060126014A015D018801B80169
:101AE600EE010B0245453130392050726F6A65634D
:101AF6007400416D626572204761726368610020FF
:101B0600204C4F4300202052454D0074656D7020D7
:101B160025642E2564004F4B203D3C25642020255E
:101B260073005741524D203E2564202025730048FE
:101B36004F54203E3E25642020257300402B25640B
:081B46002300402D256423005B
:00000001FF
