:100000000C943A000C9457000C9457000C94570031
:100010000C9457000C9444030C9457000C94570014
:100020000C9457000C9457000C9457000C947300D8
:100030000C9457000C9457000C9410030C94570028
:100040000C9457000C9457000C9448020C945700E1
:100050000C9457000C9457000C9457000C945700C4
:100060000C9457000C9457006364696E6F7073753D
:1000700078585B0011241FBECFEFD8E0DEBFCDBFA4
:1000800011E0A0E0B1E0E8E6FBE102C005900D92CE
:10009000A438B107D9F721E0A4E8B1E001C01D926E
:1000A000A73AB207E1F70E9420040C94B20D0C9419
:1000B000000084B1806384B9E1E8F0E08081886069
:1000C000808380818F7E8083AFE6B0E08C918260F8
:1000D0008C9388EA91E690938900809388008081D0
:1000E000887F808308951F920F920FB60F9211247C
:1000F0005F936F937F938F939F93AF93BF93809101
:1001000099018130B9F480918701909188016AE06A
:1001100070E00E948B07892B21F485B190E189273B
:1001200085B980918701909188010196909388010B
:1001300080938701BF91AF919F918F917F916F9134
:100140005F910F900FBE0F901F9018953B9A8FE50F
:1001500099E00197F1F700C000003B988BE091E037
:100160000197F1F700C0000033990AC0339BFECF1E
:1001700087EC90E00197F1F700C0000081E008955E
:1001800080E008953B9A43988AE08A95F1F700C091
:100190003B9843988FEE90E00197F1F700C0000084
:1001A00008953B9A43988FEE90E00197F1F700C0D5
:1001B00000003B9843989AE09A95F1F700C00895A3
:1001C000CF93DF93D82FC8E0D0FF08C00E94C200B1
:1001D000D695C150C9F7DF91CF9108950E94D10003
:1001E000F7CF0E94A600882331F08CEC0E94E0003B
:1001F00084E40C94E00008953B9A43988AE08A9541
:10020000F1F700C03B98439895E39A95F1F7000009
:1002100096B1892F887093FD07C0E7ECF0E0319725
:10022000F1F700C00000089587EC90E00197F1F726
:1002300000C0000081E008951F93CF93DF93D8E0C2
:1002400011E0C0E00E94FC008111C12B110FD150C0
:10025000C9F78C2FDF91CF911F910895EF92FF92F4
:100260000F931F93CF93DF93CDB7DEB729970FB6C8
:10027000F894DEBF0FBECDBF3B9843980E94A60006
:1002800081110EC080E029960FB6F894DEBF0FBE34
:10029000CDBFDF91CF911F910F91FF90EF90089507
:1002A0008CEC0E94E0008EEB0E94E0008E010F5F5C
:1002B0001F4F7E012AE0E20EF11C0E941C01F80192
:1002C00081938F01EE15FF05C1F70E94A6008823D8
:1002D000C9F28CEC0E94E0008EE40E94E0008B8169
:1002E0000E94E0008C810E94E0008FE70E94E00005
:1002F0008FE891E00197F1F700C000000E94A6008E
:10030000882309F4BFCF8CEC0E94E00088E40E94AF
:10031000E0009FEFE9EFF0E09150E040F040E1F7BE
:1003200000C0000081E0AFCFCF93DF93EC010E94CB
:10033000FC00882301F10E94A6008823D1F08CECF8
:100340000E94E0008EEB0E94E0000E941C01888366
:100350000E941C0189830E941C010E941C010E94B2
:100360001C010E941C010E941C010E941C010E9491
:100370001C0181E001C080E0DF91CF9108959BB125
:100380009F709BB99BB1807F892B8BB9299A299A41
:1003900029980895CF93C82F28980E94BF018C2FC9
:1003A0008295807F0E94BF018FE39FE10197F1F763
:1003B00000C00000CF910895811104C080E8860F2D
:1003C0000C94CA0180ECFBCF84B1836084B98AB1FC
:1003D000806F8AB98FE59AEE0197F1F700C00000AF
:1003E00080E30E94BF018FE19EE40197F1F700C016
:1003F000000080E30E94BF018FED91E00197F1F7CB
:1004000000C0000080E30E94BF0180E20E94BF01A3
:100410008FE39FE10197F1F700C0000088E20E949E
:10042000CA018FE00C94CA01CF93C82F289A0E946A
:10043000BF018C2F8295807F0E94BF018FE39FE1D7
:100440000197F1F700C00000CF910895CF93DF939B
:10045000EC018991811103C0DF91CF9108950E9431
:100460001402F7CFE1ECF0E08081806880833C9A51
:1004700087E690E09093C5008093C40080818061FE
:10048000808380818860808386E08093C2000895A5
:100490001F920F920FB60F9211242F933F938F93B9
:1004A0009F93EF93FF938091C600803481F481E0A5
:1004B00080938F0110928E01FF91EF919F918F9108
:1004C0003F912F910F900FBE0F901F901895833280
:1004D00089F480918C0190918D01181619061CF4F5
:1004E00081E080938E0110928F0110928D01109205
:1004F0008C01E2CF90918F018B3211F08D3261F53A
:10050000913069F420918C0130918D01232B39F0C9
:1005100010928F0110928D0110928C01CBCF90918F
:100520008F01992349F220918C0130918D01232B69
:1005300019F68D3209F6E0918C01F0918D01E456A7
:10054000FE4F808380918C0190918D010196909354
:100550008D0180938C01B0CF913069F380918C0133
:1005600090918D0105970CF4A7CF10928F011092F6
:100570008E01BBCF0F931F93CF93DF9300D000D09A
:1005800000D0CDB7DEB7282F082E000C330B8E011C
:100590000F5F1F4F18163CF53F938F9388E791E04C
:1005A0009F938F931F9286E08F931F930F930E94C8
:1005B0009F070FB6F894DEBF0FBECDBFF801819143
:1005C000811116C08091C00085FFFCCF1092C6003B
:1005D00026960FB6F894DEBF0FBECDBFDF91CF9148
:1005E0001F910F9108953F938F938EE791E0D8CF9D
:1005F0009091C00095FFFCCF8093C600E0CF85B5F9
:10060000886185BDEEE6F0E080818260808386E6C9
:1006100087BD85B5826085BD3D9A83E085BD08951F
:100620001F920F920FB60F9211248F939F93809178
:10063000900190919101892BA1F088B190E28927D6
:1006400088B98091900190919101019790939101C7
:10065000809390019F918F910F900FBE0F901F90EC
:1006600018954598F7CFE0EBF0E0808183608083B8
:1006700080818068808380E88093B300E1EBF0E0C4
:1006800080818760808308951F920F920FB60F922A
:1006900011242F933F934F935F936F937F938F9387
:1006A0009F93AF93BF93EF93FF9389B190E09093A3
:1006B000A5018093A4018091A4019091A50184706B
:1006C0008093A1018091A4019091A50188708093ED
:1006D000A6018091A201811151C08091A6018823B9
:1006E00049F081E08093A30180911401909115015C
:1006F00001960CC08091A101882361F082E0809373
:10070000A301809114019091150101979093150117
:10071000809314019091A3018091A201981739F060
:1007200081E0809392018091A3018093A201809146
:100730001401909115018B3591050CF477C08AE571
:1007400090E09093150180931401609114017091D1
:10075000150184E690E00E94690DFF91EF91BF9131
:10076000AF919F918F917F916F915F914F913F9149
:100770002F910F900FBE0F901F9018958091A2019E
:100780008130B1F48091A101882311F083E0AACFD8
:100790008091A6018111BECF809114019091150125
:1007A000019790931501809314011092A301B2CF89
:1007B0008091A2018230E1F48091A101811106C0F3
:1007C00080911401909115010196EBCF8091A601C3
:1007D000882309F49FCF809114019091150101970E
:1007E000909315018093140183E08093A30192CF2D
:1007F0008091A60181110BC0809114019091150187
:100800000196909315018093140182E0EECF8091C0
:10081000A10181117FCF8091140190911501019761
:10082000909315018093140181E0DFCF8091140132
:1008300090911501C2970CF088CF82E390E081CFB0
:100840002F923F924F925F926F927F928F929F92E0
:10085000AF92BF92CF92DF92EF92FF920F931F93CE
:10086000CF93DF93CDB7DEB767970FB6F894DEBFAF
:100870000FBECDBF0E942E0178940E9433030E94C8
:1008800059000E94FF020E943202239A8091680060
:1008900084608093680080916D00886080936D0013
:1008A00080916D00846080936D003D9A88B1866070
:1008B00088B9449A84E690E00E94610D90931501F6
:1008C0008093140180911401909115018B3591054D
:1008D0000CF47FC08AE590E0909315018093140199
:1008E000609114017091150184E690E00E94690DF9
:1008F0008AB1837F8AB98BB18C608BB989B190E062
:100900009093A5018093A4018091A4019091A501E9
:1009100084708093A1018091A4019091A5018870B9
:100920008093A6018091A10181115DC08091A601F3
:10093000811159C01092A2018091A2018093A3015C
:100940000E94F1000E94E40181E00E94CA0186E158
:1009500091E00E94260260E081E00E94DC0184E2D6
:1009600091E00E9426022FEF33ED80E321503040CA
:100970008040E1F700C0000081E00E94CA011092AF
:100980009801109299017AE0872E912C6E0191E1E5
:10099000C90ED11CE2E46E2EE1E07E2E8E010F5FC7
:1009A0001F4FF6E6AF2EF1E0BF2E319934C0109202
:1009B000860121E331E03093010120930001909101
:1009C0008601809185019817B9F181E080938401B7
:1009D00033C08091140190911501C2970CF080CF23
:1009E00082E390E079CF8091A101811108C08091CC
:1009F000A601882321F081E08093A2019DCF809100
:100A0000A101882331F08091A601811102C082E00A
:100A1000F3CF83E0F1CF329913C081E08093860158
:100A200027E331E0309301012093000120918601FA
:100A3000909185012913CACF809186018093850109
:100A4000CE0146960E949401882309F4D0C08F8974
:100A500090E0982F88272E89820F911D4AE0489FA9
:100A60009001499F300D1124C90154E09695879556
:100A70005A95E1F7B4010E947707FC01C90160EAC9
:100A800070E00E94770784E6869F9001879F300D73
:100A900011244E9FC0014F9F900D1124280F391F24
:100AA00049E0429FC001439F900D112465E070E032
:100AB0000E9477079B012058334FC901B4010E945F
:100AC000770747E1469FC001479F900D1124805F43
:100AD000934268E572E00E94770770938A01609301
:100AE00089018091890190918A010C9690938A01E5
:100AF00080938901C90164E670E00E947707362F70
:100B0000272FB4010E947707562E272E462E372E08
:100B1000E32EF22E6BE081E00E94DC0180919A01CD
:100B200090919B019F938F938DE391E09F938F937F
:100B30001F9285E08F93DF92CF920E949F0760E023
:100B400081E00E94DC012F925F92FF92EF927F92F0
:100B50006F921F9260E1562E5F921F930F930E9437
:100B60009F07C8010E9426028E2D0E94BA02209182
:100B700099010FB6F894DEBF0FBECDBF9091010171
:100B80008091000121113AC1209114013091150189
:100B90009F938F933F932F938DE491E09F938F9337
:100BA0001F925F921F930F930E949F070FB6F894B6
:100BB000DEBF0FBECDBF60E080E00E94DC01C80157
:100BC0000E9426020E94F10080918601811106C0D8
:100BD0008091890190918A018093B3003FEF81EE6B
:100BE00094E0315080409040E1F700C000008091D7
:100BF0008E01882309F48EC010928E018AE991E05B
:100C00009F938F938AE491E09F938F938CE991E077
:100C10009F938F930E94CF0780919A0190919B019F
:100C20000F900F900F900F900F900F90873F9F4F56
:100C30000CF442C180919A0190919B018E369105EE
:100C40000CF03AC180918601882309F446C0809156
:100C50009A0190919B014AE0489F9001499F300D75
:100C600011242059314047E1429FC001439F900D1C
:100C7000112468E572E00E948B0770930301609372
:100C8000020180910201909103010C96909303015F
:100C9000809302016BE081E00E94DC0180910201FF
:100CA000909103019F938F9383E791E09F938F939C
:100CB0001F9285E08F93DF92CF920E949F078091D1
:100CC0000201909103018093B300C6010E942602A5
:100CD0000FB6F894DEBF0FBECDBF6BE081E00E947F
:100CE000DC0180919A0190919B019F938F932DE35A
:100CF00031E03F932F931F9285E08F93DF92CF9245
:100D00000E949F07C6010E9426020FB6F894DEBF1C
:100D10000FBECDBF80911401909115018E159F05D6
:100D200008F486C01092990188B190E1892788B9AA
:100D30009091980180919901981719F081E0809322
:100D40008B01809199018093980180918B01882378
:100D500069F010928B0180919901811179C02D9ACF
:100D60002C9880918100887F8093810080919201EE
:100D7000882309F41ACE1092920160E081E00E946B
:100D8000DC013F924F92FF92EF927F926F921F92FF
:100D90008CE08F931F930F930E949F07C8010E94BE
:100DA0002602209199010FB6F894DEBF0FBECDBF89
:100DB0009091010180910001211164C020911401E2
:100DC000309115019F938F933F932F938DE491E082
:100DD0009F938F931F9280E18F931F930F930E9495
:100DE0009F070FB6F894DEBF0FBECDBF60E080E076
:100DF0000E94DC01C8010E942602D7CD20919901F2
:100E0000213059F420911401309115019F938F9353
:100E10003F932F9389E591E0C1CE20911401309149
:100E200015019F938F933F932F93BF92AF92B8CEAC
:100E300080911401909115019701235031092817D1
:100E4000390720F481E08093990172CF82E0FBCFD3
:100E5000809199012D982C9A813041F4109288014B
:100E6000109287018091810083607ECF8091810004
:100E7000887F8093810080E293E09093910180933A
:100E8000900174CF20919901213059F420911401DF
:100E9000309115019F938F933F932F9389E591E0B4
:100EA00097CF20911401309115019F938F933F9319
:100EB0002F93BF92AF928ECF90E080E067960FB6EF
:100EC000F894DEBF0FBECDBFDF91CF911F910F9180
:100ED000FF90EF90DF90CF90BF90AF909F908F905A
:100EE0007F906F905F904F903F902F900895AA1B36
:100EF000BB1B51E107C0AA1FBB1FA617B70710F005
:100F0000A61BB70B881F991F5A95A9F78095909536
:100F1000BC01CD01089597FB072E16F4009407D06D
:100F200077FD09D00E94770707FC05D03EF4909525
:100F300081959F4F0895709561957F4F0895AEE01C
:100F4000B0E0E5EAF7E00C94890D0D891E898F89E0
:100F5000988D26E02C831A83098397FF02C080E0D6
:100F600090E801979E838D83AE01455E5F4F698D4A
:100F70007A8DCE0101960E94E8074D815E8157FD72
:100F80000AC02F813885421753070CF49A01020FCB
:100F9000131FF80110822E96E4E00C94A50DAEE02C
:100FA000B0E0E5EDF7E00C948B0D85E08C838B8948
:100FB0009C899A838983AE01495E5F4F6D897E89E2
:100FC000CE0101960E944D0B2E96E2E00C94A70DE7
:100FD000ABE0B0E0EEEEF7E00C947B0D7C013B0162
:100FE0008A01FC0117821682838181FFC8C1CE016C
:100FF00001965C01F7019381F30193FD859193FFC5
:1010000081913F01882309F453C1853239F493FD5E
:10101000859193FF81913F01853229F4B70190E0DA
:101020000E94B80CE7CF912C212C312CFFE1F31555
:1010300038F08B3211F190F4803209F1833229F1CA
:1010400037FC3CC020ED280F2A3050F536FE20C07A
:101050008AE0989E200D1124922E06C08D3291F0C8
:10106000803371F7689430F8F30193FD859193FF15
:1010700081913F018111DACF21C0689431F86894E1
:1010800032F8F2CF689433F8EFCF689434F8ECCFAD
:10109000EAE02E9E200D1124222E689435F8E4CF2C
:1010A0008E3229F436FC04C1689436F8DDCF8C36D4
:1010B00019F4689437F8D8CF8836B1F2982F9F7D0D
:1010C00095549330E0F08336A1F18337C1F1833535
:1010D00009F063C02801F2E04F0E511CF801C080F6
:1010E000D180692D70E036FC02C06FEF7FEFC60142
:1010F0000E94660C4C01689437F882010AC00C5FAC
:101100001F4FFFE3F98388248394912C6501E894B1
:1011100037F833FE2DC0522C8114910471F55520FF
:1011200009F468CFB70180E290E00E94B80C5A94AD
:10113000F6CFF801808189830E5F1F4FE4CF28012D
:10114000F2E04F0E511CF801C080D180692D70E093
:1011500036FC02C06FEF7FEFC6010E94710C4C019C
:101160008201D5CFB70180E290E00E94B80C2A94AA
:101170002814190409F0B0F7CECFF60137FC859199
:1011800037FE81916F01B70190E00E94B80C5110B9
:101190005A94F1E08F1A9108BFCF843619F089363E
:1011A00009F077C0F80137FE6BC0608171818281E0
:1011B00093810C5F1F4FF32DFF763F2E97FF09C0E1
:1011C00090958095709561957F4F8F4F9F4F689454
:1011D00037F82AE030E0A5010E94000DC82ECA1899
:1011E0008C2C432C36FE0CC0E89440F8C91440F413
:1011F00034FE05C032FC03C0F32DFE7E4F2E892C39
:1012000044FE95C0FE01EC0DF11D8081803309F094
:1012100087C0242D297E422E842D8870582E43FCB1
:1012200095C040FE8FC09C2C821418F42C0C922C7C
:10123000981844FE91C0B70180E390E00E94B80C7A
:1012400042FE09C088E790E041FE02C088E590E0D8
:10125000B7010E94B80CC91408F48AC0CA94D12CF2
:101260009FEFC91AD90ACA0CDB1CF60182916F01E3
:10127000B70190E00E94B80CAC14BD04B1F74FCF99
:1012800060817181072E000C880B990B0E5F1F4F38
:1012900092CFD32CE894D4F82AE030E0853739F1A6
:1012A000232D297FD22E8F3601F148F48835A9F0FD
:1012B000F701868197812B96E2E10C94970D803798
:1012C00049F08837A9F7D4FE02C06894D2F820E12B
:1012D00030E00DC06894D4F8F6CF34FE03C0822FFE
:1012E0008660D82E20E132E002C028E030E0F8012C
:1012F000D7FE0FC060817181828193810C5F1F4F87
:10130000A5010E94000DC82ECA183D2CE89437F89C
:1013100067CF6081718190E080E00E5F1F4FF0CF5A
:1013200042FC02C0839478CF8394839475CF842D3C
:10133000867809F471CFF6CFB70180E290E00E9481
:10134000B80C83948214C0F3512C73CF522C5818CC
:10135000821408F46ECFF8CF842D867809F47BCF01
:101360008BE241FE80E247FC8DE2B70190E071CF55
:10137000B70180E390E00E94B80C9A946CCF8FEF95
:101380009FEF99CF20FD09C0FC0123FD05C022FF7E
:1013900002C07383628351834083089544FD17C064
:1013A00046FD1DC0DB01FC01AA0FBB1FEE1FFF1F86
:1013B0001094D1F76A0F7B1F8E1F9F1F660F771F38
:1013C000881F991F620F711D811D911D089533E0C3
:1013D000660F771F881F991F3150D1F7F3CF34E084
:1013E000F7CF0F931F93CF93DF938C01C8010E9417
:1013F0007C0CEC0197FD08C00E94520C892BB1F7C0
:10140000B801CE010E94E80CCE01DF91CF911F916F
:101410000F9108958F929F92AF92BF92EF92FF9299
:101420000F931F93CF93DF938C01D62F7A01B22EA7
:101430000E947C0C9C0133272B32310529F02D3280
:101440003105A9F46894B7F8D15061F480E0DF91D8
:10145000CF911F910F91FF90EF90BF90AF909F9011
:101460008F900895C8010E947C0C97FDEFCFCB2D83
:10147000CD7F2B2D2073F9F48033E9F4AA24AA94AC
:10148000AD0E89F0C8010E947C0C97FD0CC0282F7E
:101490002F7D283561F4C264D25029F0C8010E9422
:1014A0007C0C97FF08C0812C912C54011BC0B6FE08
:1014B0002BC0C260DA2D812C912C540120ED280F15
:1014C000283028F1C4FD09C02A3008F1C6FF05C044
:1014D0002F7D3FEE320F3630C8F0B8010E94E80C85
:1014E000C1FFB4CFC7FF08C0B094A094909480947B
:1014F000811C911CA11CB11C2C2FB501A401C7019A
:101500000E94C20981E0A3CFC261D4CF27504C2FE3
:10151000C501B4010E94CE094B015C01C260D150EB
:1015200009F3C8010E947C0C97FFC8CFD9CFA0E275
:10153000B0E0EDE9FAE00C94800D5C01962E7A01A2
:10154000CE0101966C0180E2F60111928A95E9F7CD
:10155000F501B381890130E020E0712C812CA0E0FD
:1015600041E050E0F801B3FD8591B3FF8191982FE0
:101570008F01811107C010E000E0C801A096EDE0E6
:101580000C949C0D8E3519F42115310541F1A217EB
:1015900013064CF48D3549F18D3229F4811006C0C3
:1015A000882483941DC0882009F464C0E92FE6953F
:1015B000E695E695EC0DFD2DF11D892F8770BA019A
:1015C00001C0660F8A95EAF78081682B60837916DF
:1015D00051F0971510F49F5FE9CF9150E7CFA1E04C
:1015E0002F5F3F4FBFCF812CFBCF882019F08E811A
:1015F00080628E83AA2359F0F6019E012F5D3F4F32
:101600008081809580833196E217F307C9F788249B
:101610008394C5010E947C0C97FD16C0E82FE695C7
:10162000E695E695EC0DFD2DF11D208130E0AC0135
:101630004770552702C0359527954A95E2F720FD5A
:1016400006C0B5010E94E80C882069F094CFE1142F
:10165000F10429F0F7018083C70101967C019A9477
:10166000812C9110D6CFE114F10409F486CFF70153
:10167000108283CFE82FE695E695E695EC0DFD2DDB
:10168000F11D982F9770BA0101C0660F9A95EAF77D
:101690009081692B6083782EA3CFB0E0A0E0E3E5D2
:1016A000FBE00C947E0D6C01EB015A01FC011782EA
:1016B0001682512CF601E380FE01E3FC8591E3FEE6
:1016C0008191182FEF018823E9F090E00E94520CDD
:1016D000892B21F0C6010E94F109ECCF153241F4AB
:1016E000FE01E3FC1591E3FE1191EF01153269F45F
:1016F000C6010E947C0C97FD8EC01817D9F2B60166
:101700000E94E80C852D90E08AC000E01A3231F486
:10171000E3FC1591E3FE1191EF0101E0F12C20EDC6
:10172000210F2A3048F101FF37C0FF2059F3183646
:10173000B1F11C3609F43DC0112321F3612F70E093
:1017400088E690E00E945B0C892BE1F2912C812CC1
:1017500000FD06C0F50180809180C50102965C0104
:101760001E3679F5F6014681578170E060E0202F42
:10177000C4010E94C2099ECF02606F2D70E090E00C
:1017800080E040E20E94CE09F62EFE01E3FC1591B6
:10179000E3FE1191EF01C3CFFF24FA94C8CFFE01FD
:1017A000E3FC1591E3FE1191EF01183609F0C4CF67
:1017B00008600460FE01E3FC1591E3FE1191EF0166
:1017C000BBCF1336C1F401FD02C0FF24F394C60160
:1017D0000E947C0C97FD1FC08114910429F0F40134
:1017E0008083C40101964C01FA94F110F0CF00FD02
:1017F00061CF53945FCF1B35B9F49E01A4016F2DC7
:10180000C6010E94970AEC01892B89F7F6018381B2
:10181000807309F477CF8FEF9FEF511073CFCDB75F
:10182000DEB7EFE00C949A0DC6010E94F10997FD16
:10183000F2CF1F36A9F130F4143641F0193639F0E1
:10184000006405C01337B9F01537D1F70062202FB7
:10185000A4016F2DC6010E940A0A8111C8CFD6CFFC
:101860008114910429F0F4016082C40101964C01B5
:10187000FA94FF2071F0C6010E947C0C3C0197FD98
:1018800008C00E94520C892B59F3B601C3010E9473
:10189000E80C8114910409F4AACFF4011082A7CFB7
:1018A0000061D5CF91110C945E0D803219F08950F2
:1018B0008550C8F70895FC010590061621F0002018
:1018C000D9F7C00108953197CF010895FC01059023
:1018D000615070400110D8F7809590958E0F9F1F32
:1018E0000895FC016150704001900110D8F7809577
:1018F00090958E0F9F1F0895CF93DF93EC012B815E
:1019000020FF1AC026FF0CC02F7B2B838E819F8166
:1019100001969F838E838A8190E0DF91CF91089515
:1019200022FF18C0E881F9818081082E000C990BF4
:10193000009729F420622B838FEF9FEFEECF319633
:10194000F983E8832E813F812F5F3F4F3F832E83B2
:101950009927E3CFEA85FB85099597FFF3CF2B8184
:10196000019621F080E2822B8B83E6CF80E1FBCFD2
:101970000F931F93CF93DF93182F092FEB018B81C8
:1019800081FD09C01FEF0FEF812F902FDF91CF91C5
:101990001F910F91089582FF14C02E813F818C8189
:1019A0009D81281739073CF4E881F981CF01019620
:1019B0009983888310838E819F8101969F838E8374
:1019C000E3CFE885F985812F0995892BA1F3DACF3B
:1019D000FB01238120FF11C026FD0FC08F3F980718
:1019E00071F082832F7D20642383268137812150EB
:1019F000310937832683992708958FEF9FEF089544
:101A0000FA01AA27283051F1203181F1E8946F932F
:101A10006E7F6E5F7F4F8F4F9F4FAF4FB1E03ED0D5
:101A2000B4E03CD0670F781F891F9A1FA11D680F73
:101A3000791F8A1F911DA11D6A0F711D811D911DA6
:101A4000A11D20D009F468943F912AE0269F11241B
:101A50003019305D3193DEF6CF010895462F47707F
:101A6000405D4193B3E00FD0C9F7F6CF462F4F70DA
:101A7000405D4A3318F0495D31FD4052419302D038
:101A8000A9F7EACFB4E0A6959795879577956795DE
:101A9000BA95C9F700976105710508959B01AC01DE
:101AA0000A2E06945795479537952795BA95C9F705
:101AB000620F731F841F951FA01D08959927882703
:101AC0000895F999FECF92BD81BDF89A992780B506
:101AD0000895262FF999FECF92BD81BDF89A0197FE
:101AE00000B4021639F01FBA20BD0FB6F894FA9A66
:101AF000F99A0FBE08952F923F924F925F926F9284
:101B00007F928F929F92AF92BF92CF92DF92EF928D
:101B1000FF920F931F93CF93DF93CDB7DEB7CA1B0E
:101B2000DB0B0FB6F894DEBF0FBECDBF09942A8839
:101B3000398848885F846E847D848C849B84AA84E1
:101B4000B984C884DF80EE80FD800C811B81AA816E
:101B5000B981CE0FD11D0FB6F894DEBF0FBECDBF39
:081B6000ED010895F894FFCF98
:101B680031010C00060126014A015D018801B80116
:101B7800EE010B024C0045453130392050726F6A36
:101B880065637400416D62657220476172636861C4
:101B98000020204C4F4300202052454D00523A254A
:101BA800640074656D702025642E2564004F4B20F9
:101BB8003D3C256420202573005741524D203E2589
:101BC800642020257300484F54203E3E2564202081
:101BD800257300533A256400402B25642300402DCB
:041BE800256423004D
:00000001FF
